:100000000C9461000C947E000C947E000C947E0095
:100010000C947E000C947E000C947E000C947E0068
:100020000C947E000C947E000C947E000C947E0058
:100030000C947E000C947E000C947E000C947E0048
:100040000C94A8010C947E000C947E000C947E000D
:100050000C947E000C947E000C947E000C947E0028
:100060000C947E000C947E00000000080002010049
:100070000003040700000000000000000102040863
:100080001020408001020408102001020408102002
:10009000040404040404040402020202020203032E
:1000A00003030303000000002300260029000000D2
:1000B0000000250028002B0000000000240027007D
:1000C0002A0011241FBECFEFD8E0DEBFCDBF11E064
:1000D000A0E0B1E0E4EDF6E002C005900D92AC3195
:1000E000B107D9F721E0ACE1B1E001C01D92AB331B
:1000F000B207E1F70E9458030C9468030C940000C7
:100100000F931F93CF93DF9310922D0110922C0128
:10011000C82FD0E007E010E0E0912C01F0912D0114
:10012000E830F105ECF4B8016E1B7F0BCE0102C084
:10013000959587956A95E2F7BC016170EE0FFF1FF8
:10014000E55FFE4F80810E94F80220912C013091E2
:100150002D012F5F3F4F30932D0120932C01DCCFD9
:10016000DF91CF911F910F910895CF93DF93CBE053
:10017000D1E08881229661E00E94BF0281E0CB310C
:10018000D807B9F761E082E00E94BF0261E083E036
:100190000E94BF02109231011092300110922F0183
:1001A00010922E010E94F2016093280170932901A0
:1001B00080932A0190932B010E94F2016093240105
:1001C0007093250180932601909327010E94F201EC
:1001D0006093200170932101809322019093230169
:1001E0000E94F20160931C0170931D0180931E0117
:1001F00090931F01DF91CF9108950F931F9361E0BA
:1002000082E00E94F80260E083E00E94F802E09140
:100210003001F0913101EF5FFE4F80810E9480003C
:1002200065E070E080E090E00E94210260E082E002
:100230000E94F80261E083E00E94F802E0912E0142
:10024000F0912F01EF5FFE4F80810E94800065E0FA
:1002500070E080E090E00E9421020E94F201609331
:10026000240170932501809326019093270100912A
:1002700028011091290120912A0130912B01DC01E4
:10028000CB01801B910BA20BB30B853F9140A105C5
:10029000B10508F449C00E94F201609328017093EF
:1002A000290180932A0190932B01209100018091D4
:1002B0003001909131012223D9F0019690933101C0
:1002C000809330010A9781F510923101109230012C
:1002D00080912E0190912F01019690932F01809390
:1002E0002E010A9709F510922F0110922E011CC0C1
:1002F000019790933101809330010196A9F429E090
:1003000030E0309331012093300180912E019091A3
:100310002F01019790932F0180932E01019621F4D4
:1003200030932F0120932E0184E00E942E03892B0D
:1003300061F411E084E00E942E03892B31F4809156
:100340000001812780930001F5CF1F910F9108953F
:100350001F920F920FB60F9211242F933F938F93FA
:100360009F93AF93BF938091330190913401A091FB
:100370003501B09136013091320123E0230F2D3742
:1003800020F40196A11DB11D05C026E8230F029699
:10039000A11DB11D2093320180933301909334014C
:1003A000A0933501B09336018091370190913801C7
:1003B000A0913901B0913A010196A11DB11D809320
:1003C000370190933801A0933901B0933A01BF915E
:1003D000AF919F918F913F912F910F900FBE0F90F2
:1003E0001F9018952FB7F8946091330170913401E4
:1003F00080913501909136012FBF08953FB7F89451
:100400008091370190913801A0913901B0913A0162
:1004100026B5A89B05C02F3F19F00196A11DB11D5F
:100420003FBF6627782F892F9A2F620F711D811D7C
:10043000911D42E0660F771F881F991F4A95D1F7DB
:1004400008958F929F92AF92BF92CF92DF92EF92D8
:10045000FF926B017C010E94FE014B015C01C11403
:10046000D104E104F104F1F00E9467030E94FE014F
:10047000681979098A099B09683E734081059105CD
:1004800070F321E0C21AD108E108F10888EE880E65
:1004900083E0981EA11CB11CC114D104E104F10435
:1004A00029F7DDCFFF90EF90DF90CF90BF90AF9016
:1004B0009F908F900895789484B5826084BD84B5B0
:1004C000816084BD85B5826085BD85B5816085BD4F
:1004D000EEE6F0E0808181608083E1E8F0E0108268
:1004E000808182608083808181608083E0E8F0E0A9
:1004F000808181608083E1EBF0E080818460808393
:10050000E0EBF0E0808181608083EAE7F0E08081C9
:100510008460808380818260808380818160808329
:100520008081806880831092C1000895833081F0BB
:1005300028F4813099F08230A1F008958730A9F035
:100540008830B9F08430D1F4809180008F7D03C071
:10055000809180008F7780938000089584B58F7795
:1005600002C084B58F7D84BD08958091B0008F77DF
:1005700003C08091B0008F7D8093B0000895CF9329
:10058000DF9390E0FC01E458FF4F2491FC01E05719
:10059000FF4F8491882349F190E0880F991FFC0157
:1005A000E854FF4FA591B49182559F4FFC01C5912E
:1005B000D4919FB7611108C0F8948C912095822343
:1005C0008C93888182230AC0623051F4F8948C9114
:1005D000322F309583238C938881822B888304C0AB
:1005E000F8948C91822B8C939FBFDF91CF910895CB
:1005F0000F931F93CF93DF931F92CDB7DEB7282FB2
:1006000030E0F901E859FF4F8491F901E458FF4FB8
:100610001491F901E057FF4F04910023C9F088239A
:1006200021F069830E9496026981E02FF0E0EE0FCD
:10063000FF1FE255FF4FA591B4919FB7F8948C919D
:10064000611103C01095812301C0812B8C939FBF42
:100650000F90DF91CF911F910F910895CF93DF936A
:10066000282F30E0F901E859FF4F8491F901E4584F
:10067000FF4FD491F901E057FF4FC491CC2391F083
:1006800081110E949602EC2FF0E0EE0FFF1FEC5557
:10069000FF4FA591B4912C912D2381E090E021F49E
:1006A00080E002C080E090E0DF91CF91089508954E
:1006B0000E945B020E9457030E94B500C0E0D0E098
:1006C0000E94FD002097E1F30E940000F9CF0895F9
:0406D000F894FFCFCC
:1006D40001FC60DAF266B6BEE0FEF60D000C000B1B
:0C06E400000A00090008000700060000E2
:107E0000112484B714BE81FFF0D085E080938100F7
:107E100082E08093C00088E18093C10086E0809377
:107E2000C20080E18093C4008EE0C9D0259A86E02C
:107E300020E33CEF91E0309385002093840096BBD3
:107E4000B09BFECF1D9AA8958150A9F7CC24DD24C4
:107E500088248394B5E0AB2EA1E19A2EF3E0BF2EE7
:107E6000A2D0813461F49FD0082FAFD0023811F036
:107E7000013811F484E001C083E08DD089C08234E0
:107E800011F484E103C0853419F485E0A6D080C0E4
:107E9000853579F488D0E82EFF2485D0082F10E0AE
:107EA000102F00270E291F29000F111F8ED06801E7
:107EB0006FC0863521F484E090D080E0DECF843638
:107EC00009F040C070D06FD0082F6DD080E0C81688
:107ED00080E7D80618F4F601B7BEE895C0E0D1E017
:107EE00062D089930C17E1F7F0E0CF16F0E7DF06D8
:107EF00018F0F601B7BEE89568D007B600FCFDCFD4
:107F0000A601A0E0B1E02C9130E011968C91119780
:107F100090E0982F8827822B932B1296FA010C0160
:107F200087BEE89511244E5F5F4FF1E0A038BF0790
:107F300051F7F601A7BEE89507B600FCFDCF97BE46
:107F4000E89526C08437B1F42ED02DD0F82E2BD052
:107F50003CD0F601EF2C8F010F5F1F4F84911BD097
:107F6000EA94F801C1F70894C11CD11CFA94CF0C13
:107F7000D11C0EC0853739F428D08EE10CD085E9AC
:107F80000AD08FE07ACF813511F488E018D01DD067
:107F900080E101D065CF982F8091C00085FFFCCF94
:107FA0009093C60008958091C00087FFFCCF809118
:107FB000C00084FD01C0A8958091C6000895E0E648
:107FC000F0E098E1908380830895EDDF803219F02E
:107FD00088E0F5DFFFCF84E1DECF1F93182FE3DFCA
:107FE0001150E9F7F2DF1F91089580E0E8DFEE27F6
:047FF000FF270994CA
:027FFE00040479
:0400000300007E007B
:00000001FF
