:100000000C945C000C9479000C9479000C947900A9
:100010000C9479000C9479000C9479000C9479007C
:100020000C9479000C9479000C9479000C9479006C
:100030000C9479000C9479000C9479000C9479005C
:100040000C943A010C9479000C9479000C9479008A
:100050000C9479000C9479000C9479000C9479003C
:100060000C9479000C947900000000080002010053
:100070000003040700000000000000000102040863
:100080001020408001020408102001020408102002
:10009000040404040404040402020202020203032E
:1000A0000303030300000000250028002B000000CC
:1000B0000000240027002A0011241FBECFEFD8E043
:1000C000DEBFCDBF11E0A0E0B1E0EEE8F5E002C098
:1000D00005900D92AC31B107D9F721E0ACE1B1E068
:1000E00001C01D92AD32B207E1F70E94B5020C9437
:1000F000C5020C9400000F931F93CF93DF931092CF
:100100001F0110921E01C82FD0E007E010E0E0911F
:100110001E01F0911F01E830F105ECF4B8016E1BEF
:100120007F0BCE0102C0959587956A95E2F7BC01D9
:100130006170EE0FFF1FE45FFE4F80810E947E0220
:1001400020911E0130911F012F5F3F4F30931F01FF
:1001500020931E01DCCFDF91CF911F910F91089565
:10016000CF93DF93CCE0D1E08881229661E00E94BA
:10017000450281E0CC31D807B9F761E082E00E9406
:10018000450261E083E00E94450281E090E09093A7
:1001900023018093220110922101109220011092DC
:1001A0001D0110921C01DF91CF91089561E082E062
:1001B0000E947E0260E083E00E947E02E0912201C4
:1001C000F0912301EE5FFE4F80810E947B006091E1
:1001D000000170910101882777FD8095982F0E947A
:1001E000A70160E082E00E947E0261E083E00E945D
:1001F0007E02E0912001F0912101EE5FFE4F8081AF
:100200000E947B006091000170910101882777FDB9
:100210008095982F0E94A70180911C0190911D014B
:10022000019690931D0180931C010A9714F110927E
:100230001D0110921C0180912201909123010196D1
:1002400090932301809322010A9799F4109223013D
:1002500010922201809120019091210101969093AA
:100260002101809320010A9721F41092210110921C
:10027000200108951F920F920FB60F9211242F9311
:100280003F938F939F93AF93BF938091250190915C
:100290002601A0912701B09128013091240123E08B
:1002A000230F2D3720F40196A11DB11D05C026E8AE
:1002B000230F0296A11DB11D2093240180932501D7
:1002C00090932601A0932701B093280180912901E2
:1002D00090912A01A0912B01B0912C010196A11DB2
:1002E000B11D8093290190932A01A0932B01B09313
:1002F0002C01BF91AF919F918F913F912F910F90C2
:100300000FBE0F901F9018953FB7F8948091290168
:1003100090912A01A0912B01B0912C0126B5A89BA8
:1003200005C02F3F19F00196A11DB11D3FBF6627E3
:10033000782F892F9A2F620F711D811D911D42E028
:10034000660F771F881F991F4A95D1F708958F92DE
:100350009F92AF92BF92CF92DF92EF92FF926B018A
:100360007C010E9484014B015C01C114D104E104B1
:10037000F104F1F00E94C4020E9484016819790915
:100380008A099B09683E73408105910570F321E05D
:10039000C21AD108E108F10888EE880E83E0981EA1
:1003A000A11CB11CC114D104E104F10429F7DDCF73
:1003B000FF90EF90DF90CF90BF90AF909F908F9085
:1003C0000895789484B5826084BD84B5816084BDCD
:1003D00085B5826085BD85B5816085BDEEE6F0E0BE
:1003E000808181608083E1E8F0E01082808182601A
:1003F0008083808181608083E0E8F0E0808181609B
:100400008083E1EBF0E0808184608083E0EBF0E0CA
:10041000808181608083EAE7F0E08081846080836E
:100420008081826080838081816080838081806818
:1004300080831092C1000895833081F028F48130C8
:1004400099F08230A1F008958730A9F08830B9F092
:100450008430D1F4809180008F7D03C08091800032
:100460008F7780938000089584B58F7702C084B51C
:100470008F7D84BD08958091B0008F7703C08091F7
:10048000B0008F7D8093B0000895CF93DF9390E00C
:10049000FC01E458FF4F2491FC01E057FF4F849189
:1004A000882349F190E0880F991FFC01E255FF4F26
:1004B000A591B4918C559F4FFC01C591D4919FB7E4
:1004C000611108C0F8948C91209582238C938881C7
:1004D00082230AC0623051F4F8948C91322F309507
:1004E00083238C938881822B888304C0F8948C9119
:1004F000822B8C939FBFDF91CF9108950F931F9311
:10050000CF93DF931F92CDB7DEB7282F30E0F901EC
:10051000E859FF4F8491F901E458FF4F1491F90114
:10052000E057FF4F04910023C9F0882321F069832D
:100530000E941C026981E02FF0E0EE0FFF1FEC55D6
:10054000FF4FA591B4919FB7F8948C91611103C0AE
:100550001095812301C0812B8C939FBF0F90DF9159
:10056000CF911F910F91089508950E94E1010E947B
:10057000B4020E94B000C0E0D0E00E94D6002097F4
:0E058000E1F30E940000F9CF0895F894FFCF38
:10058E000A00FC60DAF266B6BEE0FEF60D000C0064
:0C059E000B000A0009000800070006001E
:107E0000112484B714BE81FFF0D085E080938100F7
:107E100082E08093C00088E18093C10086E0809377
:107E2000C20080E18093C4008EE0C9D0259A86E02C
:107E300020E33CEF91E0309385002093840096BBD3
:107E4000B09BFECF1D9AA8958150A9F7CC24DD24C4
:107E500088248394B5E0AB2EA1E19A2EF3E0BF2EE7
:107E6000A2D0813461F49FD0082FAFD0023811F036
:107E7000013811F484E001C083E08DD089C08234E0
:107E800011F484E103C0853419F485E0A6D080C0E4
:107E9000853579F488D0E82EFF2485D0082F10E0AE
:107EA000102F00270E291F29000F111F8ED06801E7
:107EB0006FC0863521F484E090D080E0DECF843638
:107EC00009F040C070D06FD0082F6DD080E0C81688
:107ED00080E7D80618F4F601B7BEE895C0E0D1E017
:107EE00062D089930C17E1F7F0E0CF16F0E7DF06D8
:107EF00018F0F601B7BEE89568D007B600FCFDCFD4
:107F0000A601A0E0B1E02C9130E011968C91119780
:107F100090E0982F8827822B932B1296FA010C0160
:107F200087BEE89511244E5F5F4FF1E0A038BF0790
:107F300051F7F601A7BEE89507B600FCFDCF97BE46
:107F4000E89526C08437B1F42ED02DD0F82E2BD052
:107F50003CD0F601EF2C8F010F5F1F4F84911BD097
:107F6000EA94F801C1F70894C11CD11CFA94CF0C13
:107F7000D11C0EC0853739F428D08EE10CD085E9AC
:107F80000AD08FE07ACF813511F488E018D01DD067
:107F900080E101D065CF982F8091C00085FFFCCF94
:107FA0009093C60008958091C00087FFFCCF809118
:107FB000C00084FD01C0A8958091C6000895E0E648
:107FC000F0E098E1908380830895EDDF803219F02E
:107FD00088E0F5DFFFCF84E1DECF1F93182FE3DFCA
:107FE0001150E9F7F2DF1F91089580E0E8DFEE27F6
:047FF000FF270994CA
:027FFE00040479
:0400000300007E007B
:00000001FF
