:100000000C9461000C947E000C947E000C947E0095
:100010000C947E000C947E000C947E000C947E0068
:100020000C947E000C947E000C947E000C947E0058
:100030000C947E000C947E000C947E000C947E0048
:100040000C94A7010C947E000C947E000C947E000E
:100050000C947E000C947E000C947E000C947E0028
:100060000C947E000C947E00000000080002010049
:100070000003040700000000000000000102040863
:100080001020408001020408102001020408102002
:10009000040404040404040402020202020203032E
:1000A00003030303000000002300260029000000D2
:1000B0000000250028002B0000000000240027007D
:1000C0002A0011241FBECFEFD8E0DEBFCDBF11E064
:1000D000A0E0B1E0E2EDF6E002C005900D92AC3197
:1000E000B107D9F721E0ACE1B1E001C01D92AB331B
:1000F000B207E1F70E9457030C9467030C940000C9
:100100000F931F93CF93DF9310922D0110922C0128
:10011000C82FD0E007E010E0E0912C01F0912D0114
:10012000E830F105ECF4B8016E1B7F0BCE0102C084
:10013000959587956A95E2F7BC016170EE0FFF1FF8
:10014000E55FFE4F80810E94F70220912C013091E3
:100150002D012F5F3F4F30932D0120932C01DCCFD9
:10016000DF91CF911F910F910895CF93DF93CBE053
:10017000D1E08881229661E00E94BE0281E0CB310D
:10018000D807B9F761E082E00E94BE0261E083E037
:100190000E94BE02109231011092300110922F0184
:1001A00010922E010E94F1016093280170932901A1
:1001B00080932A0190932B010E94F1016093240106
:1001C0007093250180932601909327010E94F101ED
:1001D0006093200170932101809322019093230169
:1001E0000E94F10160931C0170931D0180931E0118
:1001F00090931F01DF91CF9108950F931F9361E0BA
:1002000082E00E94F70260E083E00E94F702E09142
:100210003001F0913101EF5FFE4F80810E9480003C
:1002200065E070E080E090E00E94200260E082E003
:100230000E94F70261E083E00E94F702E0912E0144
:10024000F0912F01EF5FFE4F80810E94800065E0FA
:1002500070E080E090E00E9420020E94F101609333
:10026000240170932501809326019093270100912A
:1002700028011091290120912A0130912B01DC01E4
:10028000CB01801B910BA20BB30B853F9140A105C5
:10029000B10508F449C00E94F101609328017093F0
:1002A000290180932A0190932B01209100018091D4
:1002B0003001909131012223D9F0019690933101C0
:1002C000809330010A9781F510923101109230012C
:1002D00080912E0190912F01019690932F01809390
:1002E0002E010A9709F510922F0110922E011CC0C1
:1002F000019790933101809330010196A9F429E090
:1003000030E0309331012093300180912E019091A3
:100310002F01019790932F0180932E01019621F4D4
:1003200030932F0120932E0184E00E942D03892B0E
:1003300059F484E00E942D03892BD9F380910001A8
:1003400091E08927809300011F910F9108951F92DA
:100350000F920FB60F9211242F933F938F939F9379
:10036000AF93BF938091330190913401A0913501F7
:10037000B09136013091320123E0230F2D3720F464
:100380000196A11DB11D05C026E8230F0296A11DEF
:10039000B11D209332018093330190933401A093D7
:1003A0003501B09336018091370190913801A091C9
:1003B0003901B0913A010196A11DB11D8093370119
:1003C00090933801A0933901B0933A01BF91AF9156
:1003D0009F918F913F912F910F900FBE0F901F9083
:1003E00018952FB7F8946091330170913401809182
:1003F0003501909136012FBF08953FB7F894809151
:10040000370190913801A0913901B0913A0126B598
:10041000A89B05C02F3F19F00196A11DB11D3FBF3C
:100420006627782F892F9A2F620F711D811D911DCC
:1004300042E0660F771F881F991F4A95D1F70895EC
:100440008F929F92AF92BF92CF92DF92EF92FF92E4
:100450006B017C010E94FD014B015C01C114D104C0
:10046000E104F104F1F00E9466030E94FD016819A5
:1004700079098A099B09683E73408105910570F3EB
:1004800021E0C21AD108E108F10888EE880E83E065
:10049000981EA11CB11CC114D104E104F10429F778
:1004A000DDCFFF90EF90DF90CF90BF90AF909F9007
:1004B0008F900895789484B5826084BD84B58160FE
:1004C00084BD85B5826085BD85B5816085BDEEE65C
:1004D000F0E0808181608083E1E8F0E0108280813B
:1004E00082608083808181608083E0E8F0E08081A9
:1004F00081608083E1EBF0E0808184608083E0EBC9
:10050000F0E0808181608083EAE7F0E080818460B0
:10051000808380818260808380818160808380810C
:10052000806880831092C1000895833081F028F4A0
:10053000813099F08230A1F008958730A9F0883099
:10054000B9F08430D1F4809180008F7D03C0809118
:1005500080008F7780938000089584B58F7702C0E4
:1005600084B58F7D84BD08958091B0008F7703C0DE
:100570008091B0008F7D8093B0000895CF93DF937A
:1005800090E0FC01E458FF4F2491FC01E057FF4F3D
:100590008491882349F190E0880F991FFC01E85469
:1005A000FF4FA591B49182559F4FFC01C591D49105
:1005B0009FB7611108C0F8948C91209582238C9389
:1005C000888182230AC0623051F4F8948C91322FD2
:1005D000309583238C938881822B888304C0F89480
:1005E0008C91822B8C939FBFDF91CF9108950F93B5
:1005F0001F93CF93DF931F92CDB7DEB7282F30E044
:10060000F901E859FF4F8491F901E458FF4F149123
:10061000F901E057FF4F04910023C9F0882321F02E
:1006200069830E9495026981E02FF0E0EE0FFF1FC1
:10063000E255FF4FA591B4919FB7F8948C91611149
:1006400003C01095812301C0812B8C939FBF0F9015
:10065000DF91CF911F910F910895CF93DF93282FB2
:1006600030E0F901E859FF4F8491F901E458FF4F58
:10067000D491F901E057FF4FC491CC2391F081113F
:100680000E949502EC2FF0E0EE0FFF1FEC55FF4F9C
:10069000A591B4912C912D2381E090E021F480E08C
:1006A00002C080E090E0DF91CF91089508950E940C
:1006B0005A020E9456030E94B500C0E0D0E00E949A
:1006C000FD002097E1F30E940000F9CF0895F8940F
:0206D000FFCF5A
:1006D20001FC60DAF266B6BEE0FEF60D000C000B1D
:0C06E200000A00090008000700060000E4
:00000001FF
